{
  "address": "0x289Cb630B1d9E324a894B988556eA178f43f7DCe",
  "abi": [
    {
      "inputs": [
        {
          "internalType": "address[]",
          "name": "listOfOwners",
          "type": "address[]"
        }
      ],
      "stateMutability": "nonpayable",
      "type": "constructor"
    },
    {
      "inputs": [],
      "name": "MultiSig__AddOwnerFailed",
      "type": "error"
    },
    {
      "inputs": [],
      "name": "MultiSig__CtorListOfOwnersHasDuplicatedAddresses",
      "type": "error"
    },
    {
      "inputs": [],
      "name": "MultiSig__CtorNotEnoughOwners",
      "type": "error"
    },
    {
      "inputs": [],
      "name": "MultiSig__CtorTooManyOwners",
      "type": "error"
    },
    {
      "inputs": [],
      "name": "MultiSig__OnlyOwner",
      "type": "error"
    },
    {
      "inputs": [],
      "name": "MultiSig__OwnerInvalidAddress",
      "type": "error"
    },
    {
      "inputs": [],
      "name": "MultiSig__RemoveOwnerFailed",
      "type": "error"
    },
    {
      "inputs": [],
      "name": "MultiSig__TxAlreadyConfirmed",
      "type": "error"
    },
    {
      "inputs": [],
      "name": "MultiSig__TxAlreadyExecuted",
      "type": "error"
    },
    {
      "inputs": [],
      "name": "MultiSig__TxAlreadySubmitted",
      "type": "error"
    },
    {
      "inputs": [],
      "name": "MultiSig__TxCannotExecute",
      "type": "error"
    },
    {
      "inputs": [],
      "name": "MultiSig__TxDoesNotExist",
      "type": "error"
    },
    {
      "inputs": [],
      "name": "MultiSig__TxExecuteFailed",
      "type": "error"
    },
    {
      "anonymous": false,
      "inputs": [
        {
          "indexed": true,
          "internalType": "address",
          "name": "owner",
          "type": "address"
        },
        {
          "indexed": true,
          "internalType": "uint256",
          "name": "timestamp",
          "type": "uint256"
        }
      ],
      "name": "MultiSigOwnerAdded",
      "type": "event"
    },
    {
      "anonymous": false,
      "inputs": [
        {
          "indexed": true,
          "internalType": "address",
          "name": "owner",
          "type": "address"
        },
        {
          "indexed": true,
          "internalType": "uint256",
          "name": "timestamp",
          "type": "uint256"
        }
      ],
      "name": "MultiSigOwnerRemoved",
      "type": "event"
    },
    {
      "anonymous": false,
      "inputs": [
        {
          "indexed": true,
          "internalType": "address",
          "name": "owner",
          "type": "address"
        },
        {
          "indexed": true,
          "internalType": "uint256",
          "name": "nonce",
          "type": "uint256"
        }
      ],
      "name": "TxConfirmed",
      "type": "event"
    },
    {
      "anonymous": false,
      "inputs": [
        {
          "indexed": true,
          "internalType": "address",
          "name": "owner",
          "type": "address"
        },
        {
          "indexed": true,
          "internalType": "uint256",
          "name": "nonce",
          "type": "uint256"
        }
      ],
      "name": "TxExecuted",
      "type": "event"
    },
    {
      "anonymous": false,
      "inputs": [
        {
          "indexed": true,
          "internalType": "address",
          "name": "owner",
          "type": "address"
        },
        {
          "indexed": true,
          "internalType": "uint256",
          "name": "nonce",
          "type": "uint256"
        },
        {
          "indexed": true,
          "internalType": "address",
          "name": "to",
          "type": "address"
        },
        {
          "indexed": false,
          "internalType": "uint256",
          "name": "value",
          "type": "uint256"
        },
        {
          "indexed": false,
          "internalType": "bytes",
          "name": "data",
          "type": "bytes"
        }
      ],
      "name": "TxSubmitted",
      "type": "event"
    },
    {
      "inputs": [
        {
          "internalType": "address",
          "name": "newOwner",
          "type": "address"
        }
      ],
      "name": "addOwner",
      "outputs": [],
      "stateMutability": "nonpayable",
      "type": "function"
    },
    {
      "inputs": [
        {
          "internalType": "uint256",
          "name": "_nonce",
          "type": "uint256"
        }
      ],
      "name": "confirmTx",
      "outputs": [],
      "stateMutability": "nonpayable",
      "type": "function"
    },
    {
      "inputs": [
        {
          "internalType": "uint256",
          "name": "_nonce",
          "type": "uint256"
        }
      ],
      "name": "executeTx",
      "outputs": [],
      "stateMutability": "nonpayable",
      "type": "function"
    },
    {
      "inputs": [],
      "name": "getNumberOfOwnersRequiredForApproval",
      "outputs": [
        {
          "internalType": "uint256",
          "name": "nbOwnersRequired",
          "type": "uint256"
        }
      ],
      "stateMutability": "view",
      "type": "function"
    },
    {
      "inputs": [],
      "name": "getOwnersAddresses",
      "outputs": [
        {
          "internalType": "address[]",
          "name": "",
          "type": "address[]"
        }
      ],
      "stateMutability": "view",
      "type": "function"
    },
    {
      "inputs": [],
      "name": "getPercentageOfOwnersRequiredForApproval",
      "outputs": [
        {
          "internalType": "uint8",
          "name": "nbOwnersRequired",
          "type": "uint8"
        }
      ],
      "stateMutability": "pure",
      "type": "function"
    },
    {
      "inputs": [
        {
          "internalType": "uint256",
          "name": "nonce",
          "type": "uint256"
        }
      ],
      "name": "getTransaction",
      "outputs": [
        {
          "components": [
            {
              "internalType": "address",
              "name": "to",
              "type": "address"
            },
            {
              "internalType": "uint256",
              "name": "nonce",
              "type": "uint256"
            },
            {
              "internalType": "uint256",
              "name": "value",
              "type": "uint256"
            },
            {
              "internalType": "bytes",
              "name": "data",
              "type": "bytes"
            },
            {
              "internalType": "bool",
              "name": "executed",
              "type": "bool"
            },
            {
              "internalType": "uint8",
              "name": "nbOwnerConfirmationsProcessed",
              "type": "uint8"
            }
          ],
          "internalType": "struct MultiSig.Tx",
          "name": "",
          "type": "tuple"
        }
      ],
      "stateMutability": "view",
      "type": "function"
    },
    {
      "inputs": [
        {
          "internalType": "address",
          "name": "owner",
          "type": "address"
        }
      ],
      "name": "removeOwner",
      "outputs": [],
      "stateMutability": "nonpayable",
      "type": "function"
    },
    {
      "inputs": [
        {
          "internalType": "address",
          "name": "_to",
          "type": "address"
        },
        {
          "internalType": "uint256",
          "name": "_nonce",
          "type": "uint256"
        },
        {
          "internalType": "uint256",
          "name": "_value",
          "type": "uint256"
        },
        {
          "internalType": "bytes",
          "name": "_data",
          "type": "bytes"
        }
      ],
      "name": "submitTx",
      "outputs": [],
      "stateMutability": "nonpayable",
      "type": "function"
    }
  ],
  "transactionHash": "0xefc1ccfd2202a06c10bc7254fddccda7e8df2c5586ef3ee3638f26170d833259",
  "args": [
    [
      "0xd60504758e413Aaf9d4F44bEBF1d7F0669fb0622",
      "0xc85D72a0A168b33D30D1140dD5d220AF5652617D",
      "0x86434A3079a635C17fEA61A8F1a070DAD73d3B01"
    ]
  ],
  "numDeployments": 1,
  "solcInputHash": "e5c6c8dfe772d6d96575b1891574f532",
  "bytecode": "0x60e0604052600360ff1660809060ff16815250601460ff1660a09060ff16815250605060ff1660c09060ff168152503480156200003b57600080fd5b50604051620025aa380380620025aa8339818101604052810190620000619190620005ba565b60805160ff1681511015620000a2576040517f8ce47a9a00000000000000000000000000000000000000000000000000000000815260040160405180910390fd5b60a05160ff1681511115620000e3576040517f93ffedb300000000000000000000000000000000000000000000000000000000815260040160405180910390fd5b60005b81518160ff16101562000272576000828260ff16815181106200010e576200010d6200060b565b5b60200260200101519050600073ffffffffffffffffffffffffffffffffffffffff168173ffffffffffffffffffffffffffffffffffffffff16036200017f576040517f335cfc6500000000000000000000000000000000000000000000000000000000815260040160405180910390fd5b600160008273ffffffffffffffffffffffffffffffffffffffff1673ffffffffffffffffffffffffffffffffffffffff16815260200190815260200160002060009054906101000a900460ff161562000204576040517fb9df96ba00000000000000000000000000000000000000000000000000000000815260040160405180910390fd5b60018060008373ffffffffffffffffffffffffffffffffffffffff1673ffffffffffffffffffffffffffffffffffffffff16815260200190815260200160002060006101000a81548160ff021916908315150217905550508080620002699062000676565b915050620000e6565b5080600090805190602001906200028b9291906200031e565b506200029c620002a960201b60201c565b6004819055505062000776565b6000620002e96064620002d560c05160ff16600080549050620002ee60201b6200114d1790919060201c565b6200030660201b620011631790919060201c565b905090565b60008183620002fe9190620006ae565b905092915050565b600081836200031691906200073e565b905092915050565b8280548282559060005260206000209081019282156200039a579160200282015b82811115620003995782518260006101000a81548173ffffffffffffffffffffffffffffffffffffffff021916908373ffffffffffffffffffffffffffffffffffffffff160217905550916020019190600101906200033f565b5b509050620003a99190620003ad565b5090565b5b80821115620003c8576000816000905550600101620003ae565b5090565b6000604051905090565b600080fd5b600080fd5b600080fd5b6000601f19601f8301169050919050565b7f4e487b7100000000000000000000000000000000000000000000000000000000600052604160045260246000fd5b6200043082620003e5565b810181811067ffffffffffffffff82111715620004525762000451620003f6565b5b80604052505050565b600062000467620003cc565b905062000475828262000425565b919050565b600067ffffffffffffffff821115620004985762000497620003f6565b5b602082029050602081019050919050565b600080fd5b600073ffffffffffffffffffffffffffffffffffffffff82169050919050565b6000620004db82620004ae565b9050919050565b620004ed81620004ce565b8114620004f957600080fd5b50565b6000815190506200050d81620004e2565b92915050565b60006200052a62000524846200047a565b6200045b565b9050808382526020820190506020840283018581111562000550576200054f620004a9565b5b835b818110156200057d5780620005688882620004fc565b84526020840193505060208101905062000552565b5050509392505050565b600082601f8301126200059f576200059e620003e0565b5b8151620005b184826020860162000513565b91505092915050565b600060208284031215620005d357620005d2620003d6565b5b600082015167ffffffffffffffff811115620005f457620005f3620003db565b5b620006028482850162000587565b91505092915050565b7f4e487b7100000000000000000000000000000000000000000000000000000000600052603260045260246000fd5b7f4e487b7100000000000000000000000000000000000000000000000000000000600052601160045260246000fd5b600060ff82169050919050565b6000620006838262000669565b915060ff82036200069957620006986200063a565b5b600182019050919050565b6000819050919050565b6000620006bb82620006a4565b9150620006c883620006a4565b9250817fffffffffffffffffffffffffffffffffffffffffffffffffffffffffffffffff04831182151516156200070457620007036200063a565b5b828202905092915050565b7f4e487b7100000000000000000000000000000000000000000000000000000000600052601260045260246000fd5b60006200074b82620006a4565b91506200075883620006a4565b9250826200076b576200076a6200070f565b5b828204905092915050565b60805160a05160c051611dfd620007ad6000396000818161056e015261138501526000610958015260006102e60152611dfd6000f3fe608060405234801561001057600080fd5b50600436106100935760003560e01c80633ce5c1d7116100665780633ce5c1d71461012057806354b5fe801461013e5780637065cb481461015a578063801be06014610176578063fc8bb2e21461019257610093565b8063079f4f46146100985780630cb6eec1146100b6578063173825d9146100d457806333ea3dc8146100f0575b600080fd5b6100a06101ae565b6040516100ad91906115b2565b60405180910390f35b6100be61023c565b6040516100cb91906115ed565b60405180910390f35b6100ee60048036038101906100e9919061163e565b610246565b005b61010a60048036038101906101059190611697565b610409565b604051610117919061182c565b60405180910390f35b61012861056a565b604051610135919061185d565b60405180910390f35b61015860048036038101906101539190611697565b610592565b005b610174600480360381019061016f919061163e565b6108b8565b005b610190600480360381019061018b9190611697565b610b4a565b005b6101ac60048036038101906101a791906118dd565b610e60565b005b6060600080548060200260200160405190810160405280929190818152602001828054801561023257602002820191906000526020600020905b8160009054906101000a900473ffffffffffffffffffffffffffffffffffffffff1673ffffffffffffffffffffffffffffffffffffffff16815260200190600101908083116101e8575b5050505050905090565b6000600454905090565b3073ffffffffffffffffffffffffffffffffffffffff163373ffffffffffffffffffffffffffffffffffffffff161461027e57600080fd5b600073ffffffffffffffffffffffffffffffffffffffff168173ffffffffffffffffffffffffffffffffffffffff16036102e4576040517f335cfc6500000000000000000000000000000000000000000000000000000000815260040160405180910390fd5b7f000000000000000000000000000000000000000000000000000000000000000060ff1660008054905003610345576040517f5cd163e200000000000000000000000000000000000000000000000000000000815260040160405180910390fd5b600061035082611179565b905061035b8161120e565b6000600160008473ffffffffffffffffffffffffffffffffffffffff1673ffffffffffffffffffffffffffffffffffffffff16815260200190815260200160002060006101000a81548160ff0219169083151502179055506103bb611379565b600481905550428273ffffffffffffffffffffffffffffffffffffffff167f12c060be1309a41e7be0154780b971638d45a077d3e09a5a7758d0068650fc6c60405160405180910390a35050565b6104116113ce565b600260008381526020019081526020016000206040518060c00160405290816000820160009054906101000a900473ffffffffffffffffffffffffffffffffffffffff1673ffffffffffffffffffffffffffffffffffffffff1673ffffffffffffffffffffffffffffffffffffffff16815260200160018201548152602001600282015481526020016003820180546104a990611994565b80601f01602080910402602001604051908101604052809291908181526020018280546104d590611994565b80156105225780601f106104f757610100808354040283529160200191610522565b820191906000526020600020905b81548152906001019060200180831161050557829003601f168201915b505050505081526020016004820160009054906101000a900460ff161515151581526020016004820160019054906101000a900460ff1660ff1660ff16815250509050919050565b60007f0000000000000000000000000000000000000000000000000000000000000000905090565b600160003373ffffffffffffffffffffffffffffffffffffffff1673ffffffffffffffffffffffffffffffffffffffff16815260200190815260200160002060009054906101000a900460ff16610615576040517f4523e4c700000000000000000000000000000000000000000000000000000000815260040160405180910390fd5b80600073ffffffffffffffffffffffffffffffffffffffff166002600083815260200190815260200160002060000160009054906101000a900473ffffffffffffffffffffffffffffffffffffffff1673ffffffffffffffffffffffffffffffffffffffff16036106b2576040517f5535eea400000000000000000000000000000000000000000000000000000000815260040160405180910390fd5b816002600082815260200190815260200160002060040160009054906101000a900460ff161561070e576040517fb8f9e93600000000000000000000000000000000000000000000000000000000815260040160405180910390fd5b6000610718611379565b90506000600260008681526020019081526020016000209050818160040160019054906101000a900460ff1660ff16101561077f576040517f10c57ccc00000000000000000000000000000000000000000000000000000000815260040160405180910390fd5b60018160040160006101000a81548160ff02191690831515021790555060008160000160009054906101000a900473ffffffffffffffffffffffffffffffffffffffff1673ffffffffffffffffffffffffffffffffffffffff168260020154836003016040516107ef9190611a64565b60006040518083038185875af1925050503d806000811461082c576040519150601f19603f3d011682016040523d82523d6000602084013e610831565b606091505b505090508061086c576040517fb080763500000000000000000000000000000000000000000000000000000000815260040160405180910390fd5b853373ffffffffffffffffffffffffffffffffffffffff167fe86bc3b55e40cf5722b10d1d2895e37356cc339c220ef60c8bdb883693f6cf0460405160405180910390a3505050505050565b3073ffffffffffffffffffffffffffffffffffffffff163373ffffffffffffffffffffffffffffffffffffffff16146108f057600080fd5b600073ffffffffffffffffffffffffffffffffffffffff168173ffffffffffffffffffffffffffffffffffffffff1603610956576040517f335cfc6500000000000000000000000000000000000000000000000000000000815260040160405180910390fd5b7f000000000000000000000000000000000000000000000000000000000000000060ff16600080549050036109b7576040517f2d3ca68000000000000000000000000000000000000000000000000000000000815260040160405180910390fd5b600160008273ffffffffffffffffffffffffffffffffffffffff1673ffffffffffffffffffffffffffffffffffffffff16815260200190815260200160002060009054906101000a900460ff1615610a3b576040517f2d3ca68000000000000000000000000000000000000000000000000000000000815260040160405180910390fd5b6000819080600181540180825580915050600190039060005260206000200160009091909190916101000a81548173ffffffffffffffffffffffffffffffffffffffff021916908373ffffffffffffffffffffffffffffffffffffffff16021790555060018060008373ffffffffffffffffffffffffffffffffffffffff1673ffffffffffffffffffffffffffffffffffffffff16815260200190815260200160002060006101000a81548160ff021916908315150217905550610afd611379565b600481905550428173ffffffffffffffffffffffffffffffffffffffff167fbf46a52f595053b529700b1ddfd1c7a47d0ae13fdfa123dc62e981694beee63860405160405180910390a350565b600160003373ffffffffffffffffffffffffffffffffffffffff1673ffffffffffffffffffffffffffffffffffffffff16815260200190815260200160002060009054906101000a900460ff16610bcd576040517f4523e4c700000000000000000000000000000000000000000000000000000000815260040160405180910390fd5b80600073ffffffffffffffffffffffffffffffffffffffff166002600083815260200190815260200160002060000160009054906101000a900473ffffffffffffffffffffffffffffffffffffffff1673ffffffffffffffffffffffffffffffffffffffff1603610c6a576040517f5535eea400000000000000000000000000000000000000000000000000000000815260040160405180910390fd5b816002600082815260200190815260200160002060040160009054906101000a900460ff1615610cc6576040517fb8f9e93600000000000000000000000000000000000000000000000000000000815260040160405180910390fd5b826003600082815260200190815260200160002060003373ffffffffffffffffffffffffffffffffffffffff1673ffffffffffffffffffffffffffffffffffffffff16815260200190815260200160002060009054906101000a900460ff1615610d5c576040517fcd8e608b00000000000000000000000000000000000000000000000000000000815260040160405180910390fd5b600060026000868152602001908152602001600020905060018160040160018282829054906101000a900460ff16610d949190611aaa565b92506101000a81548160ff021916908360ff16021790555060016003600087815260200190815260200160002060003373ffffffffffffffffffffffffffffffffffffffff1673ffffffffffffffffffffffffffffffffffffffff16815260200190815260200160002060006101000a81548160ff021916908315150217905550843373ffffffffffffffffffffffffffffffffffffffff167fc589ff6c2ac9afba30deef79571dcb507c6bd8f88c3077ee69a2c5070b13d98560405160405180910390a35050505050565b600160003373ffffffffffffffffffffffffffffffffffffffff1673ffffffffffffffffffffffffffffffffffffffff16815260200190815260200160002060009054906101000a900460ff16610ee3576040517f4523e4c700000000000000000000000000000000000000000000000000000000815260040160405180910390fd5b600073ffffffffffffffffffffffffffffffffffffffff166002600086815260200190815260200160002060000160009054906101000a900473ffffffffffffffffffffffffffffffffffffffff1673ffffffffffffffffffffffffffffffffffffffff1614610f7f576040517f6156f55500000000000000000000000000000000000000000000000000000000815260040160405180910390fd5b6040518060c001604052808673ffffffffffffffffffffffffffffffffffffffff16815260200185815260200184815260200183838080601f016020809104026020016040519081016040528093929190818152602001838380828437600081840152601f19601f820116905080830192505050505050508152602001600015158152602001600060ff168152506002600086815260200190815260200160002060008201518160000160006101000a81548173ffffffffffffffffffffffffffffffffffffffff021916908373ffffffffffffffffffffffffffffffffffffffff1602179055506020820151816001015560408201518160020155606082015181600301908051906020019061109792919061141f565b5060808201518160040160006101000a81548160ff02191690831515021790555060a08201518160040160016101000a81548160ff021916908360ff1602179055509050508473ffffffffffffffffffffffffffffffffffffffff16843373ffffffffffffffffffffffffffffffffffffffff167f990f3d9ffe92875b8e71fd83ecbd0edab1fd9249dec4b5f775c9343f1b80028486868660405161113e93929190611b2e565b60405180910390a45050505050565b6000818361115b9190611b60565b905092915050565b600081836111719190611be9565b905092915050565b600080600090505b8273ffffffffffffffffffffffffffffffffffffffff16600082815481106111ac576111ab611c1a565b5b9060005260206000200160009054906101000a900473ffffffffffffffffffffffffffffffffffffffff1673ffffffffffffffffffffffffffffffffffffffff16146112055780806111fd90611c49565b915050611181565b80915050919050565b6000805490508110611255576040517f08c379a000000000000000000000000000000000000000000000000000000000815260040161124c90611cee565b60405180910390fd5b60008190505b600160008054905061126d9190611d0e565b81101561132e5760006001826112839190611d42565b8154811061129457611293611c1a565b5b9060005260206000200160009054906101000a900473ffffffffffffffffffffffffffffffffffffffff16600082815481106112d3576112d2611c1a565b5b9060005260206000200160006101000a81548173ffffffffffffffffffffffffffffffffffffffff021916908373ffffffffffffffffffffffffffffffffffffffff160217905550808061132690611c49565b91505061125b565b50600080548061134157611340611d98565b5b6001900381819060005260206000200160006101000a81549073ffffffffffffffffffffffffffffffffffffffff0219169055905550565b60006113c960646113bb7f000000000000000000000000000000000000000000000000000000000000000060ff1660008054905061114d90919063ffffffff16565b61116390919063ffffffff16565b905090565b6040518060c00160405280600073ffffffffffffffffffffffffffffffffffffffff168152602001600081526020016000815260200160608152602001600015158152602001600060ff1681525090565b82805461142b90611994565b90600052602060002090601f01602090048101928261144d5760008555611494565b82601f1061146657805160ff1916838001178555611494565b82800160010185558215611494579182015b82811115611493578251825591602001919060010190611478565b5b5090506114a191906114a5565b5090565b5b808211156114be5760008160009055506001016114a6565b5090565b600081519050919050565b600082825260208201905092915050565b6000819050602082019050919050565b600073ffffffffffffffffffffffffffffffffffffffff82169050919050565b6000611519826114ee565b9050919050565b6115298161150e565b82525050565b600061153b8383611520565b60208301905092915050565b6000602082019050919050565b600061155f826114c2565b61156981856114cd565b9350611574836114de565b8060005b838110156115a557815161158c888261152f565b975061159783611547565b925050600181019050611578565b5085935050505092915050565b600060208201905081810360008301526115cc8184611554565b905092915050565b6000819050919050565b6115e7816115d4565b82525050565b600060208201905061160260008301846115de565b92915050565b600080fd5b600080fd5b61161b8161150e565b811461162657600080fd5b50565b60008135905061163881611612565b92915050565b60006020828403121561165457611653611608565b5b600061166284828501611629565b91505092915050565b611674816115d4565b811461167f57600080fd5b50565b6000813590506116918161166b565b92915050565b6000602082840312156116ad576116ac611608565b5b60006116bb84828501611682565b91505092915050565b6116cd816115d4565b82525050565b600081519050919050565b600082825260208201905092915050565b60005b8381101561170d5780820151818401526020810190506116f2565b8381111561171c576000848401525b50505050565b6000601f19601f8301169050919050565b600061173e826116d3565b61174881856116de565b93506117588185602086016116ef565b61176181611722565b840191505092915050565b60008115159050919050565b6117818161176c565b82525050565b600060ff82169050919050565b61179d81611787565b82525050565b600060c0830160008301516117bb6000860182611520565b5060208301516117ce60208601826116c4565b5060408301516117e160408601826116c4565b50606083015184820360608601526117f98282611733565b915050608083015161180e6080860182611778565b5060a083015161182160a0860182611794565b508091505092915050565b6000602082019050818103600083015261184681846117a3565b905092915050565b61185781611787565b82525050565b6000602082019050611872600083018461184e565b92915050565b600080fd5b600080fd5b600080fd5b60008083601f84011261189d5761189c611878565b5b8235905067ffffffffffffffff8111156118ba576118b961187d565b5b6020830191508360018202830111156118d6576118d5611882565b5b9250929050565b6000806000806000608086880312156118f9576118f8611608565b5b600061190788828901611629565b955050602061191888828901611682565b945050604061192988828901611682565b935050606086013567ffffffffffffffff81111561194a5761194961160d565b5b61195688828901611887565b92509250509295509295909350565b7f4e487b7100000000000000000000000000000000000000000000000000000000600052602260045260246000fd5b600060028204905060018216806119ac57607f821691505b6020821081036119bf576119be611965565b5b50919050565b600081905092915050565b60008190508160005260206000209050919050565b600081546119f281611994565b6119fc81866119c5565b94506001821660008114611a175760018114611a2857611a5b565b60ff19831686528186019350611a5b565b611a31856119d0565b60005b83811015611a5357815481890152600182019150602081019050611a34565b838801955050505b50505092915050565b6000611a7082846119e5565b915081905092915050565b7f4e487b7100000000000000000000000000000000000000000000000000000000600052601160045260246000fd5b6000611ab582611787565b9150611ac083611787565b92508260ff03821115611ad657611ad5611a7b565b5b828201905092915050565b600082825260208201905092915050565b82818337600083830152505050565b6000611b0d8385611ae1565b9350611b1a838584611af2565b611b2383611722565b840190509392505050565b6000604082019050611b4360008301866115de565b8181036020830152611b56818486611b01565b9050949350505050565b6000611b6b826115d4565b9150611b76836115d4565b9250817fffffffffffffffffffffffffffffffffffffffffffffffffffffffffffffffff0483118215151615611baf57611bae611a7b565b5b828202905092915050565b7f4e487b7100000000000000000000000000000000000000000000000000000000600052601260045260246000fd5b6000611bf4826115d4565b9150611bff836115d4565b925082611c0f57611c0e611bba565b5b828204905092915050565b7f4e487b7100000000000000000000000000000000000000000000000000000000600052603260045260246000fd5b6000611c54826115d4565b91507fffffffffffffffffffffffffffffffffffffffffffffffffffffffffffffffff8203611c8657611c85611a7b565b5b600182019050919050565b600082825260208201905092915050565b7f696e646578206f7574206f6620626f756e640000000000000000000000000000600082015250565b6000611cd8601283611c91565b9150611ce382611ca2565b602082019050919050565b60006020820190508181036000830152611d0781611ccb565b9050919050565b6000611d19826115d4565b9150611d24836115d4565b925082821015611d3757611d36611a7b565b5b828203905092915050565b6000611d4d826115d4565b9150611d58836115d4565b9250827fffffffffffffffffffffffffffffffffffffffffffffffffffffffffffffffff03821115611d8d57611d8c611a7b565b5b828201905092915050565b7f4e487b7100000000000000000000000000000000000000000000000000000000600052603160045260246000fdfea2646970667358221220354c9c10f31ac6b74a24d74f5c6221dfeb2677b8e15598564b98daeee3fd98f164736f6c634300080e0033",
  "devdoc": {
    "author": "Brice Grenard",
    "kind": "dev",
    "methods": {},
    "title": "A multisignature wallet contract",
    "version": 1
  },
  "userdoc": {
    "kind": "user",
    "methods": {
      "addOwner(address)": {
        "notice": "Adds a new owner to this contract. A single owner from this contract cannot add a new owner, he/her must send a proposal."
      },
      "confirmTx(uint256)": {
        "notice": "Confirms a proposal (transaction) Every owner stored in this contract may confirm the proposal"
      },
      "constructor": {
        "notice": "Initializes the contract with a pre-defined list of owners Calculate the number of owners required to execute a transaction"
      },
      "executeTx(uint256)": {
        "notice": "Executes a proposal (transaction) if enough owners confirmed it. Any owner stored in this contract may confirm the proposal, even if one has not confirmed it."
      },
      "getNumberOfOwnersRequiredForApproval()": {
        "notice": "Retrieves the number of owners required for a transaction execution."
      },
      "getOwnersAddresses()": {
        "notice": "Returns a list of all owners stored in this contract."
      },
      "getPercentageOfOwnersRequiredForApproval()": {
        "notice": "Get immutable percentage variable of owners required for a transaction execution."
      },
      "getTransaction(uint256)": {
        "notice": "Gets a transaction object for a given nonce"
      },
      "removeOwner(address)": {
        "notice": "Removes an exising owner from this contract. A single owner from this contract cannot remove an existing owner, he/her must send a proposal."
      },
      "submitTx(address,uint256,uint256,bytes)": {
        "notice": "Submits a proposal (transaction) The proposal is for this use case a contract function call passed into the _data parameter I may later use the value for funds withdrawal proposal"
      }
    },
    "notice": "This contract is a mutlisig wallet that is being used for the marketplace contract I have been working on.  It allows any contract's owner to make a proposal. Anyone including the proposal's author is welcomed to confirm it.  If a proposal has gained enough confirmation, the transaction can be executed.",
    "version": 1
  },
  "storageLayout": {
    "storage": [
      {
        "astId": 392,
        "contract": "contracts/MultiSigContract.sol:MultiSig",
        "label": "s_owners",
        "offset": 0,
        "slot": "0",
        "type": "t_array(t_address)dyn_storage"
      },
      {
        "astId": 396,
        "contract": "contracts/MultiSigContract.sol:MultiSig",
        "label": "s_isOwner",
        "offset": 0,
        "slot": "1",
        "type": "t_mapping(t_address,t_bool)"
      },
      {
        "astId": 401,
        "contract": "contracts/MultiSigContract.sol:MultiSig",
        "label": "s_transactions",
        "offset": 0,
        "slot": "2",
        "type": "t_mapping(t_uint256,t_struct(Tx)422_storage)"
      },
      {
        "astId": 407,
        "contract": "contracts/MultiSigContract.sol:MultiSig",
        "label": "hasConfirmed",
        "offset": 0,
        "slot": "3",
        "type": "t_mapping(t_uint256,t_mapping(t_address,t_bool))"
      },
      {
        "astId": 409,
        "contract": "contracts/MultiSigContract.sol:MultiSig",
        "label": "s_nbOwnerConfirmationsRequiredForApproval",
        "offset": 0,
        "slot": "4",
        "type": "t_uint256"
      }
    ],
    "types": {
      "t_address": {
        "encoding": "inplace",
        "label": "address",
        "numberOfBytes": "20"
      },
      "t_array(t_address)dyn_storage": {
        "base": "t_address",
        "encoding": "dynamic_array",
        "label": "address[]",
        "numberOfBytes": "32"
      },
      "t_bool": {
        "encoding": "inplace",
        "label": "bool",
        "numberOfBytes": "1"
      },
      "t_bytes_storage": {
        "encoding": "bytes",
        "label": "bytes",
        "numberOfBytes": "32"
      },
      "t_mapping(t_address,t_bool)": {
        "encoding": "mapping",
        "key": "t_address",
        "label": "mapping(address => bool)",
        "numberOfBytes": "32",
        "value": "t_bool"
      },
      "t_mapping(t_uint256,t_mapping(t_address,t_bool))": {
        "encoding": "mapping",
        "key": "t_uint256",
        "label": "mapping(uint256 => mapping(address => bool))",
        "numberOfBytes": "32",
        "value": "t_mapping(t_address,t_bool)"
      },
      "t_mapping(t_uint256,t_struct(Tx)422_storage)": {
        "encoding": "mapping",
        "key": "t_uint256",
        "label": "mapping(uint256 => struct MultiSig.Tx)",
        "numberOfBytes": "32",
        "value": "t_struct(Tx)422_storage"
      },
      "t_struct(Tx)422_storage": {
        "encoding": "inplace",
        "label": "struct MultiSig.Tx",
        "members": [
          {
            "astId": 411,
            "contract": "contracts/MultiSigContract.sol:MultiSig",
            "label": "to",
            "offset": 0,
            "slot": "0",
            "type": "t_address"
          },
          {
            "astId": 413,
            "contract": "contracts/MultiSigContract.sol:MultiSig",
            "label": "nonce",
            "offset": 0,
            "slot": "1",
            "type": "t_uint256"
          },
          {
            "astId": 415,
            "contract": "contracts/MultiSigContract.sol:MultiSig",
            "label": "value",
            "offset": 0,
            "slot": "2",
            "type": "t_uint256"
          },
          {
            "astId": 417,
            "contract": "contracts/MultiSigContract.sol:MultiSig",
            "label": "data",
            "offset": 0,
            "slot": "3",
            "type": "t_bytes_storage"
          },
          {
            "astId": 419,
            "contract": "contracts/MultiSigContract.sol:MultiSig",
            "label": "executed",
            "offset": 0,
            "slot": "4",
            "type": "t_bool"
          },
          {
            "astId": 421,
            "contract": "contracts/MultiSigContract.sol:MultiSig",
            "label": "nbOwnerConfirmationsProcessed",
            "offset": 1,
            "slot": "4",
            "type": "t_uint8"
          }
        ],
        "numberOfBytes": "160"
      },
      "t_uint256": {
        "encoding": "inplace",
        "label": "uint256",
        "numberOfBytes": "32"
      },
      "t_uint8": {
        "encoding": "inplace",
        "label": "uint8",
        "numberOfBytes": "1"
      }
    }
  }
}